{
  "contractName": "Order",
  "abi": [
    {
      "constant": false,
      "inputs": [],
      "name": "withdraw",
      "outputs": [
        {
          "name": "",
          "type": "bool"
        }
      ],
      "payable": false,
      "stateMutability": "nonpayable",
      "type": "function"
    },
    {
      "constant": false,
      "inputs": [],
      "name": "close",
      "outputs": [],
      "payable": false,
      "stateMutability": "nonpayable",
      "type": "function"
    },
    {
      "constant": true,
      "inputs": [
        {
          "name": "time",
          "type": "uint256"
        }
      ],
      "name": "computePrice",
      "outputs": [
        {
          "name": "",
          "type": "uint256"
        }
      ],
      "payable": false,
      "stateMutability": "view",
      "type": "function"
    },
    {
      "constant": false,
      "inputs": [],
      "name": "makeOrder",
      "outputs": [],
      "payable": true,
      "stateMutability": "payable",
      "type": "function"
    },
    {
      "constant": true,
      "inputs": [
        {
          "name": "a",
          "type": "uint256"
        },
        {
          "name": "b",
          "type": "uint256"
        }
      ],
      "name": "power",
      "outputs": [
        {
          "name": "",
          "type": "uint256"
        }
      ],
      "payable": false,
      "stateMutability": "pure",
      "type": "function"
    },
    {
      "inputs": [
        {
          "name": "_icoToken",
          "type": "address"
        },
        {
          "name": "_hardCap",
          "type": "uint256"
        },
        {
          "name": "_sPrice",
          "type": "uint256"
        },
        {
          "name": "_pExp",
          "type": "uint256"
        },
        {
          "name": "_pConst",
          "type": "uint256"
        },
        {
          "name": "_maxContrib",
          "type": "uint256"
        },
        {
          "name": "_maxTime",
          "type": "uint256"
        }
      ],
      "payable": false,
      "stateMutability": "nonpayable",
      "type": "constructor"
    }
  ],
  "bytecode": "0x60606040526000600155600060025560006003556000600455600060055560006006556000600755600060085560006009556000600a60006101000a81548160ff0219169083151502179055506000600c55341561005c57600080fd5b60405160e0806105aa833981016040528080519060200190919080519060200190919080519060200190919080519060200190919080519060200190919080519060200190919080519060200190919050506000831115156100bd57600080fd5b6001841115156100cc57600080fd5b6000861115156100db57600080fd5b6000851115156100ea57600080fd5b866000806101000a81548173ffffffffffffffffffffffffffffffffffffffff021916908373ffffffffffffffffffffffffffffffffffffffff1602179055504260078190555085600181905550846003819055508360048190555082600581905550816002819055508060068190555050505050505050610439806101716000396000f30060606040526004361061006d576000357c0100000000000000000000000000000000000000000000000000000000900463ffffffff1680633ccfd60b1461007257806343d726d61461009f578063480c979c146100b4578063486a55b1146100eb578063c04f01fc146100f5575b600080fd5b341561007d57600080fd5b610085610135565b604051808215151515815260200191505060405180910390f35b34156100aa57600080fd5b6100b2610281565b005b34156100bf57600080fd5b6100d560048080359060200190919050506102ca565b6040518082815260200191505060405180910390f35b6100f361030c565b005b341561010057600080fd5b61011f60048080359060200190919080359060200190919050506103e0565b6040518082815260200191505060405180910390f35b6000600a60009054906101000a900460ff16151561015257600080fd5b6000809054906101000a900473ffffffffffffffffffffffffffffffffffffffff1673ffffffffffffffffffffffffffffffffffffffff1663a9059cbb33600954600b60003373ffffffffffffffffffffffffffffffffffffffff1673ffffffffffffffffffffffffffffffffffffffff16815260200190815260200160002054026000604051602001526040518363ffffffff167c0100000000000000000000000000000000000000000000000000000000028152600401808373ffffffffffffffffffffffffffffffffffffffff1673ffffffffffffffffffffffffffffffffffffffff16815260200182815260200192505050602060405180830381600087803b151561026157600080fd5b6102c65a03f1151561027257600080fd5b50505060405180519050905090565b600c5460015411158061029657506006544210155b156102c8576001600a60006101000a81548160ff0219169083151502179055506102c16008546102ca565b6009819055505b565b600080600754830390506005546102e3826004546103e0565b8115156102ec57fe5b048160010101816001016003540281151561030357fe5b04915050919050565b600034600c54016001541015151561032357600080fd5b600b60003373ffffffffffffffffffffffffffffffffffffffff1673ffffffffffffffffffffffffffffffffffffffff1681526020019081526020016000205490506002543482011115151561037857600080fd5b348101600b60003373ffffffffffffffffffffffffffffffffffffffff1673ffffffffffffffffffffffffffffffffffffffff1681526020019081526020016000208190555034600c60008282540192505081905550426008819055506103dd610281565b50565b6000808390505b60018311156104035783810290508280600190039350506103e7565b80915050929150505600a165627a7a723058204052454a18536004284ccd25a580f66a6c83ec04f70c0a7bc22a95e5323ae3160029",
  "source": "pragma solidity ^0.4.17;\n\nimport \"./erc20.sol\";\n\n// TODO owner, stop\n\ncontract Order {\n\n    ERC20 icoToken;\n    uint hardCap = 0;\n    uint maxContrib = 0;\n    uint sPrice = 0;\n    uint pExp = 0;\n    uint pConst = 0;\n    uint maxTime = 0;\n    uint sTime = 0;\n\n    uint lastTime = 0;\n    uint finalPrice = 0;\n    bool closed = false;\n\n    mapping(address => uint) orders;\n    uint totalOrders = 0;\n\n    function Order(address _icoToken,  uint _hardCap,\n          uint _sPrice, uint _pExp,\n          uint _pConst, uint _maxContrib,\n          uint _maxTime) {\n        require(_pConst > 0);\n        require(_pExp > 1);\n        require(_hardCap > 0);\n        require(_sPrice > 0);\n\n        icoToken = ERC20(_icoToken);\n        sTime = now;\n        hardCap = _hardCap;\n        sPrice = _sPrice;\n        pExp = _pExp;\n        pConst = _pConst;\n        maxContrib = _maxContrib;\n        maxTime = _maxTime;\n    }\n\n    function makeOrder() payable {\n        require(hardCap >= totalOrders + msg.value);\n        var val = orders[msg.sender];\n        require(val + msg.value <= maxContrib);\n        orders[msg.sender] = val + msg.value;\n\n        totalOrders += msg.value;\n        lastTime = now;\n\n        close();\n    }\n\n    function computePrice(uint time) view returns(uint) {\n        var t = time - sTime;\n        return sPrice*(1 + t) / (1+t + power(t, pExp) / pConst);\n    }\n\n    function power(uint a, uint b) pure returns(uint) {\n        uint result = a;\n        for(;b > 1; b--)\n            result = result * a;\n        return result;\n    }\n\n    function close() {\n        if (hardCap <= totalOrders ||\n            now >= maxTime) {\n\n            closed = true;\n            finalPrice = computePrice(lastTime);\n        }\n    }\n\n    function withdraw () returns(bool) {\n        require(closed);\n        return icoToken.transfer(msg.sender,\n                 orders[msg.sender] * finalPrice);\n    }\n}\n",
  "sourcePath": "/home/robert/ico/contracts/order.sol",
  "compiler": {
    "name": "solc",
    "version": "0.4.18+commit.9cf6e910.Emscripten.clang"
  },
  "schemaVersion": "1.0.1",
  "updatedAt": "2018-03-06T21:36:34.580Z"
}